:1000000019C028C027C026C025C024C023C022C0D4
:1000100021C020C01FC01EC01DC01CC01BC01AC0F4
:1000200019C018C017C016C015C014C013C012C024
:10003000CCC010C011241FBECFEFD2E0DEBFCDBFB9
:1000400021E0A0E0B1E001C01D92A534B207E1F7C4
:1000500049D03EC1D5CFECE7F0E080818066808357
:10006000EAE7F0E08081866880830895ECE7F0E0BD
:100070008081807F8083EAE7F0E0808180648083F4
:10008000808186FDFDCFEAE7F0E080818064808397
:10009000808186FDFDCF809179000895589A87EA86
:1000A00091E60197F1F700C00000589887EA91E6C1
:1000B0000197F1F700C000000895589A2FE986E8EB
:1000C00091E0215080409040E1F700C00000589836
:1000D0002FE986E891E0215080409040E1F700C090
:1000E00000000895B8DF509A80E421D0789426D09B
:1000F00057D04DD08823E9F383EC99E00197F1F7CD
:1001000000C000002FD0803131F4C8DFC7DF48D0F5
:1001100080E018D0EECF803A29F4A8DF8093000168
:1001200011D0E7CFCADFC9DF8FEF0CD0E2CF880F45
:100130008093BA0084E08093BC00089585EC80939E
:10014000BC000895909102019F5F9F712091010171
:10015000921739F0E92FF0E0ED5FFE4F8083909326
:10016000020108959091240180912301981769F06C
:10017000809123018F5F8F7180932301E091230190
:10018000F0E0EB5DFE4F8081089588E808952091AE
:1001900024019091230181E0291301C080E008959A
:1001A00010920101109202010895909124019F5F25
:1001B0009F7120912301921739F0E92FF0E0EB5D58
:1001C000FE4F80839093240108951F920F920FB6E3
:1001D0000F9211242F933F934F935F936F937F93CD
:1001E0008F939F93AF93BF93EF93FF938091B90049
:1001F000883909F455C090F4803751F130F48823E0
:1002000009F44EC08036C9F04FC0883809F448C0A0
:100210008039B9F0803809F047C013C0883BE1F05D
:1002200028F4803AC9F1883AB9F03EC0883CC1F15F
:10023000883FB1F1803C61F137C085EC8093BC0010
:1002400036C08091BB00B1DF85EC8093BC002FC02D
:1002500085EC8093BC002BC090910201809101013C
:10026000981779F0809101018F5F8F718093010160
:10027000E0910101F0E0ED5FFE4F80818093BB00D3
:1002800003C088E88093BB0085EC8093BC000FC05E
:1002900085EC8093BC000BC085EC8093BC0007C04C
:1002A00080E98093BC0003C085EC8093BC00FF9183
:1002B000EF91BF91AF919F918F917F916F915F91DE
:1002C0004F913F912F910F900FBE0F901F90189557
:0402D000F894FFCFD0
:00000001FF
